:020000040800F2
:100000002052002401040008390B0008370B0008B7
:10001000510A1008B1050008ED0B1008000000009F
:100020000000000000000000000000004103000884
:10003000AD001008000000009D030008430B0008FD
:100040001B0400081B0400081B0400081B04000814
:100050001B0400081B0400081B0400081B04000804
:100060001B0400081B0400081B0400081B040008F4
:100070001B0400081B0400081B0400081B040008E4
:100080001B0400081B0400081B0400081B040008D4
:100090001B0400081B0400081B0400081B040008C4
:1000A0001B0400081B0400081B0400081B040008B4
:1000B0001B0400081B0400081B0400081B040008A4
:1000C0001B0400081B0400081B0400081B04000894
:1000D0001B0400081B0400081B0400081B04000884
:1000E0001B0400081B0400081B0400081B04000874
:1000F0001B0400081B0400081B0400081B04000864
:100100001B0400081B0400081B0400081B04000853
:100110001B0400081B0400081B0400081D0B10082A
:100120001B0400081B0400081B0400081B04000833
:100130001B04000800000000000000001B04000871
:100140001B0400081B0400081B0400081B04000813
:100150001B0400081B0400081B0400081B04000803
:100160001B0400081B0400081B0400081B040008F3
:100170001B0400081B0400081B040008000000000A
:100180001B0400081B0400081B0400081B040008D3
:100190001B0400081B0400081B0400081B040008C3
:1001A0001B0400081B0400081B0400081B040008B3
:1001B0001B0400081B0400081B0400081B040008A3
:1001C0001B0400081B0400080000000000000000E1
:1001D00000000000000000001B04000800000000F8
:1001E000000000000000000000000000000000000F
:1001F00000000000000000001B0400081B040008B1
:100200001B0400081B040008000000001B04000879
:100210001B0400081B0400081B0400081B04000842
:100220001B0400081B0400081B0400080000000059
:100230001B0400081B040008000000001B04000849
:100240001B0400081B0400081B0400081B04000812
:100250001B0400081B0400081B0400081B04000802
:100260001B0400081B0400081B0400081B040008F2
:100270001B0400081B0400081B0400080000000009
:100280001B0400081B040008000000001B040008F9
:10029000000000001B0400081B0400080000000010
:1002A000000000001B0400081B04000800F002F816
:1002B00000F03CF80AA090E8000C82448344AAF1C4
:1002C0000107DA4501D100F031F8AFF2090EBAE8C2
:1002D0000F0013F0010F18BFFB1A43F0010318477A
:1002E000DC150000FC150000103A24BF78C878C166
:1002F000FAD8520724BF30C830C144BF04680C602C
:10030000704700000023002400250026103A28BF73
:1003100078C1FBD8520728BF30C148BF0B60704777
:100320001FB501F185FA1FBD10B510BDFFF090FE9D
:100330001146FFF7F5FF00F15BFC00F02AF9000021
:100340002C4B19680868B0E8F04F80F30988BFF3B8
:100350006F8F4FF0000080F311887047000000009D
:1003600008480068006880F308884FF0000080F3B8
:10037000148862B661B6BFF34F8FBFF36F8F00DF93
:1003800000BF00BF08ED00E0DFF80C00016841F499
:1003900070010160704700BF88ED00E0EFF3098055
:1003A000BFF36F8F134B1A681EF0100F08BF20EDBC
:1003B000108A20E9F04F106009B44FF0500080F32C
:1003C0001188BFF34F8FBFF36F8F00F05BFF4FF0CB
:1003D000000080F3118809BC19680868B0E8F04F84
:1003E0001EF0100F08BFB0EC108A80F30988BFF32D
:1003F0006F8F70471C000024EFF3058070470000EA
:100400000948804709480047FEE7FEE7FEE7FEE7A8
:10041000FEE7FEE7FEE7FEE7FEE7FEE704480549E4
:10042000054A064B704700005D0A1008AD0200083F
:10043000204A002420520024204E0024204E002474
:10044000032A40F2308010F0030C00F0158011F800
:10045000013BBCF1020F624498BF11F801CB00F8D8
:10046000013B38BF11F8013BA2F1040298BF00F82C
:1004700001CB38BF00F8013B11F0030300F05780B7
:10048000083AC0F0088051F8043B083A51F804CB10
:10049000A0E80810F5E7121D5CBF51F8043B40F8D6
:1004A000043BAFF30080D20724BF11F8013B11F8E1
:1004B00001CB48BF11F8012B24BF00F8013B00F825
:1004C00001CB48BF00F8012B704702F0FF0343EA5D
:1004D000032242EA0242FFF09BBD4FF0000200B54A
:1004E000134694469646203922BFA0E80C50A0E857
:1004F0000C50B1F12001BFF4F7AF090728BFA0E805
:100500000C5048BF0CC05DF804EB890028BF40F8D0
:10051000042B08BF704748BF20F8022B11F0804F12
:1005200018BF00F8012B704770477047704710B52F
:10053000203AC0F00B80B1E81850203AA0E81850DB
:10054000B1E81850A0E81850BFF4F5AF5FEA027C9C
:1005500024BFB1E81850A0E8185044BF18C918C00B
:10056000BDE810405FEA827C24BF51F8043B40F8AC
:10057000043B08BF7047D20728BF31F8023B48BF91
:1005800011F8012B28BF20F8023B48BF00F8012BCF
:10059000704710B50446AFF300802046BDE8104018
:1005A000FFF02EBD01491820ABBEFEE72600020079
:1005B000FEE70000024881680278114481607047BC
:1005C00008000024032010B5FFF0C6FDFFF050FE28
:1005D0000F4A104914681368C4F3032203F00F0391
:1005E0008A5CC95C02F01F0201F01F01D0400A4A78
:1005F00020FA01F11160094908600F2000F010F89D
:1006000008B1012010BDFFF067FD002010BD000003
:10061000184402583A181008180000241400002446
:1006200010B5102804468AB02CD20022014637208B
:10063000FFF072FD3720FFF061FD17480460174896
:10064000016841F020010160006809A900F0200064
:1006500008906846FFF0BCFD0598B0B100F094F931
:1006600040000F4900220F4CB0FBF1F10E4840F260
:10067000E7330460C0E90332491EC0E9011200F10A
:1006800064F928B101200AB010BD00F07DF9E8E757
:10069000054800F18BF9F6E70C00002448450258A4
:1006A00040420F00001400409C000024F0B5154C9F
:1006B0004378211D0A1D23600378F3B143680B6062
:1006C000057BC67A817A437B2D07847B45EA0665E4
:1006D000C77B90F809C0067A90F800E045EAC1406F
:1006E00040EA834040EA444040EA074040EA0C20A8
:1006F00040EA460040EA0E0001E000200860106079
:10070000F0BD000098ED00E0074A40F00100064906
:1007100070321060086840F480300860BFF34F8F7B
:10072000BFF36F8F7047000024ED00E02DE9F05F0C
:1007300004000F467ED0DFF83882D8F8000000F0C1
:100740000F00B8420CD2D8F8001021F00F01394345
:10075000C8F80010D8F8000000F00F00B84269D1C6
:100760002078844D40070AD52069296801F070017E
:10077000884204D9296821F070010143296020785A
:100780007C4E361D00070AD56069316801F07001A2
:10079000884204D9316821F070010143316020782A
:1007A000C0060AD5A069316801F4E061884204D925
:1007B000316821F4E061014331602078DFF8B4B1A1
:1007C00080060BF1080B0CD5E1695846DBF80020D8
:1007D00002F07002914204D9026822F070020A43CA
:1007E0000260207880070AD5E068296801F00F01CF
:1007F000884204D9296821F00F010143296020783B
:10080000C0073ED05B49A2682868183920F47060A0
:10081000104328606068022818D0032819D009689E
:10082000012819D0490700294ADADFF848A1AAF1BE
:10083000080A00E044E0DAF8002022F00702024350
:10084000CAF80020FFF034FC814612E009688903F1
:10085000E9E709688901E6E7C905E4E7FFF028FC54
:10086000A0EB090141F28830814202D90320BDE8A2
:10087000F09F6168DAF8000000F03800B0EBC10FBB
:10088000ECD1207880070AD5E068296801F00F01D3
:10089000884204D2296821F00F0101432960D8F869
:1008A0000010404601F00F01B9420BD9016821F058
:1008B0000F0139430160006800F00F00B84201D019
:1008C0000120D4E7207840070AD52069296801F083
:1008D0007001884204D2296821F070010143296027
:1008E000207800070AD56069316801F070018842FC
:1008F00004D2316821F07001014331602078C006D4
:100900000AD5A069316801F4E061884204D23168F7
:1009100021F4E06101433160207880060CD5E16963
:100920005846DBF8002002F07002914204D20268BF
:1009300022F070020A430260FFF09AFC0E492A6816
:100940002B68C2F3032203F00F038A5CC95C02F038
:100950001F0201F01F01D040084A20FA01F1116086
:100960000749086007480068BDE8F05FFFF758BE18
:1009700000200052184402583A18100818000024A9
:10098000140000240C00002400B5FFF04FFC0549C2
:100990000968054AC1F30211515C01F01F01C8400A
:1009A00000BD00001C4402583A18100870477047F8
:1009B00070B50446006800250169C943890715D44C
:1009C000C168C943890711D4EA1E02610121217758
:1009D000206880698007204602D000F12DF804E0ED
:1009E00000F0A7F8204600F128F825772068016973
:1009F000C943490717D4C168C943490713D4022121
:100A00006FF00402026121772068806910F4407F52
:100A1000204602D000F110F804E000F08AF82046E9
:100A200000F10BF8257720680169C943090716D43E
:100A3000C168C943090712D404216FF0080202619A
:100A400021772068C0698007204602D0FFF0F4FFBC
:100A500004E000F06EF82046FFF0EFFF25772068F5
:100A60000169C943C90617D4C168C943C90613D46B
:100A700008216FF01002026121772068C06910F42C
:100A8000407F204602D0FFF0D7FF04E000F051F88D
:100A90002046FFF0D2FF257720680169C943C907C6
:100AA00008D1C168C943C90704D1891E0161204624
:100AB000FFF0C4FF20680169C943090609D4C16871
:100AC000C943090605D46FF0800101612046FFF794
:100AD0006DFF20680169C943C90509D4C168C943CC
:100AE000090605D46FF4807101612046FFF02BFFE9
:100AF00020680169C943490609D4C168C943490648
:100B000005D46FF040010161204600F013F8206821
:100B10000169C94389060BD4C168C943890607D452
:100B20006FF0200101612046BDE87040FFF00CBF6E
:100B300070BD70477047FEE7FEE7012000F071F8D6
:100B4000FBE74FF0E02010B5006900F12DFE012811
:100B500003D0BDE8104000F0C7BB10BD30B59DB05C
:100B60004C216846FFF7B9FC202113A8FFF7B5FC1C
:100B700021494FF0FF3008600220FFF0FFFA1F48C4
:100B8000016841F4404101600168002401F44041E2
:100B90001B9101688904FCD5022000904025049532
:100BA0000121039104220B921E23CDE90904CDE912
:100BB0000C300FAB0E900C2183E8130068461294A2
:100BC000FFF0F2FB08B172B6FEE713AB3F20032142
:100BD00083E813004FF480621A950521CDE916458C
:100BE000CDE9185213A8FFF7A1FD002801D072B675
:100BF000FEE71DB030BD0000B0440258184802584E
:100C0000090700284FEA116104DB00F1E02080F8B9
:100C10000014704700F00F0000F1E02080F8141D70
:100C2000704710B5EFF3058111B16FF0050404E0D2
:100C30004FF0000408B100F14BFB204610BD00004E
:100C4000EFF3058010B16FF00500704704490868A4
:100C500010B14FF0FF30704701220A60002070474A
:100C60006C00002430B4026C0B46002A0BD0D0E993
:100C700002411144C160A14201D30168C16018461C
:100C800030BCFFF7DDBB30BC704710B5044690F8B0
:100C9000590058B101280CD002280FD0502080F301
:100CA0001188BFF34F8FBFF36F8FFEE7206B00F10A
:100CB000B7FA2046BDE8104000F1B2BA10BD0000FE
:100CC000144E4FF08058144CDFF85090A6F29C4719
:100CD00012E000BF00F014FAF068C568281D00F1AA
:100CE00057FAA068401EA0606068401E606000F077
:100CF00027FA2846FFF7C9FF60680028EAD138685C
:100D00000128F9D9C9F80080BFF34F8FBFF36F8F67
:100D1000F2E70000C40500241C00002404ED00E0FC
:100D200030B5114900E011460A688242FBD34B6896
:100D30005C18844203D14468084623444B604368EE
:100D40001D18954209D1084C183C2468A24209D0CC
:100D500052681A4442600A6812680260814200D0F8
:100D6000086030BD0460F9E78800002410B504462F
:100D700000F0C6F9A06B28B15FF0000400F0E0F9C4
:100D8000204610BD0124F9E730B53C4D89B06BE039
:100D90000498002806DA059ADDE9060190470498D0
:100DA000002861DB069C606910B1201D00F1F0F99C
:100DB00003A800F0D5F8024604980A2854D2DFE8C8
:100DC00000F00505052D304705052D3094F8280065
:100DD00040F0010084F82800A06905990B46014401
:100DE000204600F143F950B3216A2046884794F821
:100DF0002800400738D50020009005980023A169FD
:100E000042181946204600F001FDC0B9502080F379
:100E10001188BFF34F8FBFF36F8FFEE794F8280060
:100E20001EE094F8280040F0010084F8280005989E
:100E3000A06128B181181346204600F117F913E08C
:100E4000502080F31188BFF34F8FBFF36F8FFEE701
:100E500094F82800810703D4204600F1E1F903E06B
:100E600020F0010084F828002868002204A900F07E
:100E70009BFA00288CD109B030BD00005800002436
:100E80002DE9FC410F46054600F18CFA01A800F05F
:100E900067F80446019818B100F056FCBDE8FC81E3
:100EA000254EAFB130690068D0B300273068291BE8
:100EB0003A4600F083F900F047FC0028EED11F49C4
:100EC0004FF080500860BFF34F8FBFF36F8FE5E79F
:100ED000A542EBD800F038FCF0682746C068C4682B
:100EE000201D00F155F994F82800410719D5A06993
:100EF0002B463A464119204600F1B8F8A8B1002027
:100F00002A46034601460090204600F07FFC60B967
:100F1000502080F31188BFF34F8FBFF36F8FFEE730
:100F200007E020F0010084F82800216A2046884765
:100F3000B4E70127BAE700005800002404ED00E000
:100F40000648416B096829B1416BC968C96849689D
:100F5000816270474FF0FF31FAE700001C00002467
:100F600070B5054600F12EFC064E0446B06884427A
:100F700003D200F009F8012000E00020286020469C
:100F8000B46070BD58000024F8B5194D20E0C06869
:100F9000C4680668201D00F1FBF8216A20468847D6
:100FA00094F82800400713D5A0693044B04206D910
:100FB0002461211D6060E86800F10DF908E000205F
:100FC0003246034601460090204600F01FFC38B12F
:100FD000E86801680029DAD12969C5E90310F8BD7C
:100FE000502080F31188BFF34F8FBFF36F8FFEE760
:100FF000580000242DE9F0410027044600F1D2F901
:10100000324E306808B9FFF09FFF706904424ED13C
:10101000C4B3083460070ED004F00700C0F1080024
:101020000444600707D0502080F31188BFF34F8F2E
:10103000BFF36F8FFEE72CB37068844237D8234824
:10104000183001460D6801E028460D466968A14246
:1010500002D229680029F7D131688D4227D007686C
:101060002968016008376868011B10290FD9281901
:10107000420708D0502080F31188BFF34F8FBFF391
:101080006F8FFEE713E041606C60FFF749FE69680F
:101090007068401A7060B268904200D2B060002060
:1010A00072691143C5E90001F068401CF06000F06E
:1010B0004BFB780707D0502080F31188BFF34F8F88
:1010C000BFF36F8FFEE73846BDE8F0817000002463
:1010D00010B5044C8023046004F15C0008601360C8
:1010E00010BD0000040700244FF0FF3300F1080199
:1010F0000022C0E901130260C16001617047000075
:10110000502080F31188BFF34F8FBFF36F8F0A49D0
:101110004868401C486001280CD10848006810F05D
:10112000FF0F07D0502080F31188BFF34F8FBFF31C
:101130006F8FFEE7704700009000002404ED00E090
:101140000849486828B1401E486001D180F31188E1
:101150007047502080F31188BFF34F8FBFF36F8F1C
:10116000FEE700009000002410B5FFF745F9114993
:1011700010280ED300F1E0200A7890F8F003904296
:1011800007D2502080F31188BFF34F8FBFF36F8FCA
:10119000FEE709488968006800F4E060884207D9E2
:1011A000502080F31188BFF34F8FBFF36F8FFEE79E
:1011B00010BD0000900000240CED00E070B5154655
:1011C0000E460446FFF79CFF94F944100020491C8A
:1011D00001D184F8440094F94510491C01D184F8E8
:1011E0004500FFF7ADFFA06B28B904F124002A46A3
:1011F000314600F02BF82046BDE87040FFF07ABF82
:1012000002490A6A0260C968416070471C000024F4
:1012100001490120C86170471C00002410B50C462C
:1012200050B1094909681831FFF0D5FF2046BDE8E3
:1012300010400121FFF090BD502080F31188BFF3D2
:101240004F8FBFF36F8FFEE71C00002470B514466C
:101250000D4668B10A4909681831FFF0D4FF0CB196
:101260004FF0FF3521462846BDE87040FFF074BDC1
:10127000502080F31188BFF34F8FBFF36F8FFEE7CD
:101280001C000024164810B5016B11B10121C16189
:1012900010BD0021C161134A016901E0B9B1491EC5
:1012A00001EB810352F82330002BF7D001EB8103CF
:1012B00002EB830202F1080453685B685360A342A7
:1012C00001D15B685360DA680260016110BD502093
:1012D00080F31188BFF34F8FBFF36F8FFEE70000DD
:1012E0001C00002428010024502010B580F3118830
:1012F000BFF34F8FBFF36F8F00F04CF918B1044963
:101300004FF080500860002080F3118810BD00006D
:1013100004ED00E02DE9F04704008A4629D0FFF7EC
:10132000EFFE21680025D4E90F23D4F840C004F172
:10133000100810460E46401E4FF0FF3902FB031204
:1013400000FB0C10BAF1000FA563666084F84490AE
:1013500084F84590C4E9022013D04046FFF7C4FE4C
:1013600004F12400FFF7C0FEFFF7EAFE0120BDE80C
:10137000F087502080F31188BFF34F8FBFF36F8F3A
:10138000FEE720690028EFD0404600F0A5F90028CC
:10139000EAD004494FF080500860BFF34F8FBFF38D
:1013A0006F8FE1E704ED00E02DE9F74704008A467E
:1013B00083B04FF0000603D0BAF1000F08D011E05F
:1013C000502080F31188BFF34F8FBFF36F8FFEE77C
:1013D000206C38B1502080F31188BFF34F8FBFF3DA
:1013E0006F8FFEE700F1E0F9DFF8F4804FF08057EF
:1013F0004FF0000948B9059838B1502080F31188A2
:10140000BFF34F8FBFF36F8FFEE7FFF779FEA56B3A
:10141000C5B151462046FFF725FC6D1EA563206926
:1014200050B104F1100000F057F928B1C8F800706D
:10143000BFF34F8FBFF36F8FFFF782FE012006B01F
:10144000BDE8F087059808B11EB106E0FFF778FE09
:1014500027E06846FFF7D4FE0126FFF771FEFFF094
:10146000A1FFFFF74DFE94F94400401C01D184F820
:10147000449094F94500401C01D184F84590FFF751
:101480005FFE05A9684600F153F9002820460AD0FE
:10149000FFF030FE00F058F92046FFF767FC002807
:1014A000B3D00020CBE7FFF761FC90B1059904F1C0
:1014B0002400FFF7B3FE2046FFF01CFE00F044F9C5
:1014C0000028A2D1C8F80070BFF34F8FBFF36F8F11
:1014D0009BE72046FFF00EFE00F036F995E700008E
:1014E00004ED00E02DE9FF5F994616468A468346E3
:1014F0009000DDE90E87FFF77DFD05001CD05C2024
:10150000FFF778FD040014D00020256384F859000B
:101510004B46CDE90087CDE9024032465146584658
:10152000FFF04BFD2046FFF045FC012004B0BDE874
:10153000F09F2846FFF074FE4FF0FF30F6E7F0B55D
:1015400085B0DDE90B740A9DA7B1DCB15C26276389
:10155000022684F85960002703970DF1100C0095BE
:10156000CDE901C4FFF029FD2046FFF023FC0498DB
:1015700005B0F0BD502080F31188BFF34F8FBFF34B
:101580006F8FFEE7502080F31188BFF34F8FBFF3BA
:101590006F8FFEE72DE9F0412E4C206B002728B11C
:1015A000A069401CA0613846BDE8F081E668761C61
:1015B000E66013D1606B006838B1502080F3118869
:1015C000BFF34F8FBFF36F8FFEE7606BA16B61635B
:1015D000A063206A401C2062FFF7B2FCDFF878802D
:1015E000A06A864209D3606B0068A0B1606BC068D6
:1015F000C5686868864211D2A0622068C06A00EBA4
:10160000800158F82100012800D90127E06900284D
:10161000C9D00127C7E74FF0FF30EDE7281DFFF0E5
:10162000B7FDA86A18B105F11800FFF0B1FDE86A2E
:101630002169884200D9206100EB800108EB81001C
:10164000291DFFF0E0FD2068E96AC06A8142CAD323
:101650000127C8E71C0000242801002470B50446B7
:101660004FF0000190B31A4D2868844207D05020F3
:1016700080F31188BFF34F8FBFF36F8FFEE7206DAC
:1016800038B1E36C401EE26A20659A421ED040B138
:101690001CE0502080F31188BFF34F8FBFF36F8F92
:1016A000FEE7201DFFF074FDE06CC0F13801A16180
:1016B000E0622969884200D9286100EB8000054971
:1016C00001EB8000211DFFF09EFD0121084670BD49
:1016D0001C0000242801002470B5C068C46854B1FF
:1016E00004F118000646FFF053FD144D286B50B16D
:1016F0001348314615E0502080F31188BFF34F8F17
:10170000BFF36F8FFEE7201DFFF042FDE06A2969FD
:10171000884200D9286100EB80000A4901EB800073
:10172000211DFFF070FDE06A2968C96A884203D96B
:101730000121E961084670BD002070BD1C00002435
:10174000B0050024280100242DE9F0472C4D286B1A
:101750000024274638B1FFF7D3FC286B401E2863CE
:10176000286B40B147E0502080F31188BFF34F8FC2
:10177000BFF36F8FFEE7234E0120A968D9B3A6F50A
:10178000916980463068E0B1F068C46804F11800DF
:10179000FFF0FEFC201DFFF0FBFCE06A2969884297
:1017A00000D9286100EB800109EB8100211DFFF0C9
:1017B0002AFDE06A2968C96A8842E3D3C5F81C801B
:1017C000E0E70CB1FFF7BCFBAC694CB14FEA08068F
:1017D000FFF7E0FE00B1EE61641EF9D10020A861C0
:1017E000E86940B1084901274FF080500860BFF315
:1017F0004F8FBFF36F8FFFF7A3FC3846BDE8F0872C
:101800001C000024B005002404ED00E02DE9FF4198
:101810001E46134602004FF000000A9D16D0144CDD
:101820002768002F0FD006290292CDE9001317DA9E
:10183000FFF0BAFF02284FF000030FD0002220680B
:101840006946FFF065FE04B0BDE8F081502080F3EA
:101850001188BFF34F8FBFF36F8FFEE72A46EEE785
:101860000023324669463846FFF002FFEBE70000EE
:101870005800002458181008000000000000000064
:101880000000000000000000000200000B0000004B
:1018900000000000000000004C18100800000000CC
:1018A0000000000000000000000000000002000036
:1018B000100000000000000000000000DC1800081C
:1018C000000000249C000000E802000878190008CD
:1018D0009C00002484510000040300080000000064
:1018E00000000000010000001000000000000000E7
:1018F0000090D0030090D003000000000000000022
:1019000000000000000000000000000000000000D7
:1019100000000000000000000000000000000000C7
:1019200000000000000000000000000000000000B7
:1019300000000000000000000000000000000000A7
:101940000000000000000000000000000000000097
:101950000000000000000000000000000000000087
:101960000000000000000000000000000000000077
:08197000AAAAAAAA00000000C7
:020000040810E2
:1000000003B400F791F903BC00F7CCFA4FF00002FB
:100010000429C0F0128010F0030C00F04580CCF1F0
:10002000040CBCF1020F18BF00F8012BA8BF20F888
:10003000022BA1EB0C0100F752BA5FEAC17C24BF8E
:1000400000F8012B00F8012B48BF00F8012B704786
:10005000754600F023F8AE4605006946534620F089
:100060000700854618B020B500F7D8F9BDE8204054
:100070004FF000064FF000074FF000084FF0000B64
:1000800021F00701AC46ACE8C009ACE8C009ACE817
:10009000C009ACE8C0098D467047000000487047B1
:1000A000BC4900247047000000F719BA70470000EF
:1000B000014880687047000008000024BFF35F8F8C
:1000C000044800210368034A23F48033036070323C
:1000D0001160704724ED00E0074882B0016841F0EC
:1000E00002010160006800220F2100F00200009070
:1000F000901E02B000F010B854450258002809DBE9
:10010000410900F01F028900012001F1E021904027
:10011000C1F80001704700000E4BF0B41B680D469B
:10012000C3F30223C3F10706042E00D90426191DC8
:10013000072901D2002300E0DB1E012404FA06F1A6
:100140009C40491E2940641E994014402143F0BC44
:1001500000F756BD0CED00E0064900F0070210B5AF
:100160004FF6FF040868044B204040EA0220184381
:10017000086010BD0CED00E00000FA05134970B5F1
:100180000A68D243520705D5096801F00701814288
:1001900013D118E00A6822F0070202430A60FFF751
:1001A00087FF0A4D4FF47A760446083D07E000BF0A
:1001B000FFF77EFF001BB04201D9012070BD286807
:1001C000C0438004F4D4002070BD00000C480258E5
:1001D00070B5144C3F220260124A24680832131D85
:1001E000114D04F00704446016681C1D06F4706687
:1001F0008660166806F00F06C660126802F070028C
:1002000002611A6802F0700242611A6802F4E06248
:100210008261226802F07002C261286800F00F005B
:10022000086070BD104402580020005230B500F044
:100230001FF80B4A0B490C4B15681468C5F30322D1
:1002400004F00F048A5C095D02F01F0201F01F0137
:10025000D040064A20FA01F119601060084630BD0E
:10026000184402583A1810081800002414000024FA
:10027000454970B545480968434B103B11F03802B9
:1002800008D00111082A03D0102A0BD0182A0BD04D
:10029000084670BD19688906FBD51968C1F3C1010C
:1002A000C84070BD3A4870BD3749374D18310C1DF4
:1002B00024350A68096826682D6802F0030406F0F0
:1002C0000102C1F30511C5F3CC0515FB02F200EEE6
:1002D000102AB8EE400AE9B32F4ADFED2E0AB7EE36
:1002E000001A6CB1DFED2D1A012C01D0022C43D085
:1002F00002EE101A1068F8EE422A81EEA22A1EE0E1
:100300001C68A40611D51B6801EE901A1168C3F38E
:10031000C103F8EE612AD84001EE900AC1F308004B
:10032000F8EE611A81EEA22A0BE001EE901ADFEDE1
:100330001C2A00BFF8EE611A106882EEA12AC0F3F1
:10034000080001EE900AF8EE611A40EE201A31EE34
:10035000810A00E015E022EE000A1068C0F3462092
:10036000401C00EE900AF8EE600A80EE201ABCEE07
:10037000C10A10EE100A70BD01EE901ADFED092AD5
:10038000D8E7002070BD0000104402580090D00350
:1003900000366E0100000039304402580024744ACF
:1003A0000024744C001BB74B2DE9F05F04007DD096
:1003B000FB4F2078FA4D1837DFF8E483103DC00773
:1003C00066D0D8F80000396800F03800102822D034
:1003D000182803D101F0030002281CD06068B0F592
:1003E000803F1FD010B3B0F5A02F2BD0B0F5A81FC1
:1003F00028682FD020F480302860286820F48020DE
:100400002860286820F480102860606898B3FFF79F
:100410004FFE06462BE02868800339D56068002827
:10042000C5D035E0286840F48030EDE7286820F436
:1004300080302860286820F480102860286820F424
:100440008020E1E7286840F480202860286820F4B4
:10045000801005E040F480202860286840F4801077
:100460002860DFE7FFF724FE801B64287ED8286819
:100470008003F7D50CE0FFE7FFF71AFE064604E01D
:10048000FFF716FE801B6428F0D828688003F7D495
:100490002078800756D5D8F80000DFF80493396833
:1004A00010F03800A9F10C0910D000E0F0E0182895
:1004B00001D188070AD0E06898B3296821F01901B2
:1004C00001432960FFF7F4FD064626E0286840074F
:1004D00002D5E0680028A3D0E168286820F0190060
:1004E00008432860FFF7E4FD064604E0FFF7E0FD5F
:1004F000801B0228BAD828684007F7D5217CD9F894
:10050000002022F0FE4242EA0161C9F8001019E021
:10051000FFF7CEFD801B0228A8D828684007F7D532
:10052000ECE7FFE7286820F001002860FFF7C0FD36
:10053000064604E0FFF7BCFD801B022896D8286819
:100540004007F7D42078C00646D5D8F80000DFF879
:100550005092396800F03800A9F10409082812D037
:10056000182805D101F00300012800E0ECE00AD0D2
:10057000E0690028286820D040F080002860FFF75C
:1005800097FD064615E02868C00502D5E069802879
:100590007ED194F82010D9F8002022F07C5242EA53
:1005A0000161C9F8001017E0FFF782FD801B0228E7
:1005B000A0D82868C005F7D5EBE720F080002860B8
:1005C000FFF776FD064604E0FFF772FD801B022868
:1005D00090D82868C005F7D42078000729D570483E
:1005E0006169643000298146016811D041F0010140
:1005F0000160FFF75DFD064605E000BFFFF758FD0F
:10060000801B022888D8D9F800008007F6D510E0B2
:1006100021F001010160FFF74BFD064605E000BF38
:10062000FFF746FD801B022888D8D9F80000800714
:10063000F6D42078800623D5A0690028286810D039
:1006400040F480502860FFF733FD064605E000BF08
:10065000FFF72EFD801B022876D828688004F7D586
:100660000EE020F480502860FFF722FD064604E0EB
:10067000FFF71EFD801B022866D828688004F7D487
:10068000207840076FD5DFF81C91D9F8001000E002
:1006900033E141F48071C9F80010FFF709FD064607
:1006A00005E000BFFFF704FD801B64284CD8D9F893
:1006B0000000C005F6D53A4EA0686036012818D073
:1006C000D8B1052825D0852830682AD020F001002F
:1006D0003060306820F004003060306820F0800026
:1006E0003060A0684FF47A7A78B3FFF7E1FC814676
:1006F00026E0306840F00100F2E7306820F00100A9
:100700003060306820F080003060306820F00400F5
:10071000E6E7306840F004003060306820F0800088
:1007200005E040F004003060306840F08000306048
:10073000DFE700BFFFF7BCFCA0EB0900504503D882
:1007400030688007F6D50EE088E0FFE7FFF7B0FCE1
:10075000814605E0FFF7ACFCA0EB090050457DD8D1
:1007600030688007F6D4606AF0B3DFF834A0D8F8B8
:1007700000100AF1200A4FF6F87B0AF10408C1F3D1
:10078000C2010329AAF1040969D00228286820F0CF
:100790008070286008D0FFF78BFC044682E00000E0
:1007A0001044025800480258FFF782FC064604E055
:1007B000FFF77EFC801B022871D828688001F7D4DF
:1007C000E26A40F2F331386854F8283F884340EA3F
:1007D000021018433860217B4FF4FE0C22894FF041
:1007E000FE47208A267D00E0ABE04902521E401EF3
:1007F000A1F5007189B2C2F308021143761E0CEA1A
:1008000000400143484607EA06621143CAF8001057
:10081000D9F8001021F00101C9F80010D8F8001033
:10082000266A21EA0B0141EAC601C8F80010D9F88E
:100830000010A26921F00C011143C9F800100168F1
:10084000E26921F0020111430160016841F4803145
:100850000160016841F40031016001E01FE025E022
:10086000016841F480210160016841F001010160EB
:10087000286840F080702860FFF71AFC044604E006
:10088000FFF716FC001B022809D828688001F7D55D
:1008900057E000BFFFF70CFC001B022802D9032021
:1008A000BDE8F09F28688001F4D44AE03968012847
:1008B000DAF8000021D0A26A01F0030393421CD1B0
:1008C000E26AC1F305118A4217D1216BC0F3080215
:1008D000491E8A4211D1616BC0F34622491E9142E2
:1008E0000BD1A16BC0F30642491E914205D1E16BC9
:1008F000C0F30660491E814201D00120D0E7A16CFF
:100900004646D8F80000C0F3CC00814219D0D9F88F
:1009100000004D4620F00100C9F80000FFF7C8FBB9
:100920004FEA0007FFF7C4FBB842FBD0A26C306867
:1009300020EA0B0040EAC2003060286840F0010065
:1009400028600020ACE77047704710B5040003D062
:1009500094F83D0010B107E0012010BD002084F89C
:100960003C00204600F723F8022084F83D00206870
:10097000211D00F0D9F8012084F8480084F83E00D9
:1009800084F83F0084F8400084F8410084F8420075
:1009900084F8430084F8440084F8450084F8460055
:1009A00084F8470084F83D00002010BD90F83D1009
:1009B000012901D001207047174A022180F83D101B
:1009C0000168CB6843F00103CB600068904214D00B
:1009D000B0F1804F11D0114988420ED010498842A1
:1009E0000BD01049884208D00F49884205D00F49E2
:1009F000884202D00E49884207D181680D4A1140D1
:100A0000062906D0B1F5803F03D0016841F001010D
:100A10000160002070470000000001400004004019
:100A200000080040000C0040000401400018004095
:100A3000004001400700010070477047006803490B
:100A4000884201D1FFF6B6BD704700000014004097
:100A5000FEE7012000F7E5F8FBE700002748F0B5C6
:100A6000274A016841F470010160106800F00F002E
:100A7000032804D2106820F00F00C01C1060214928
:100A80000020204C10340B681F4D43F001030B6015
:100A900020600B682B400B60136803F00F03032BDF
:100AA00004D9136823F00F03DB1C1360154C174A9D
:100AB0001834174B261D371D2060124C154D283455
:100AC0003060261D3860371D23603B1D35601C1DBE
:100AD0003A60251D2E1D1860331D2260286032608B
:100AE00018600A6843F2D204064B0B4D22F48022B0
:100AF00060330A6018602C60F0BD000088ED00E0F3
:100B000000200052004402587FEDF6EA8002010105
:100B1000000202020000FF01004000520148FFF6FF
:100B200047BF00009C0000242DE9F047274B4FF001
:100B3000804A274D02689842264E274F274C09D0FD
:100B4000504507D0A84205D0B04203D0B84201D0EA
:100B5000A04205D1D1F804C022F070024CEA020292
:100B6000DFF87CC0DFF87C809842DFF87C900FD003
:100B700050450DD0A8420BD0B04209D0B84207D0A2
:100B8000A04205D0604503D0404501D0484503D17F
:100B9000CD6822F440722A434D6922F080022A4334
:100BA000026098428A68C2620A68826207D0A042E4
:100BB00005D0604503D0404501D0484501D10969C1
:100BC000016301214161BDE8F087000000000140A0
:100BD0000004004000080040000C004000040140F8
:100BE000004001400044014000480140FEE7000091
:100BF0001FB500240094019402940394FFF75EFA59
:100C000001208DF80C001F218DF8081087228DF827
:100C100009208DF80D008DF8000068468DF80A4017
:100C20008DF80E408DF8014001948DF80B408DF841
:100C30000F40FFF63BFD0420FFF666FDFFF6C2FC09
:100C4000FFF68CFF0D48016841F0800101600068EB
:100C500000F080000090FFF6F3FF094A00210948E8
:100C600000F032F8084C0021054A24322060074881
:100C700000F02AF8606000F00BF8FEE740450258EB
:100C8000741800083B0B000800000024530A1008E9
:100C900010B5EFF3058010B16FF0050010BD0848E6
:100CA0000168012902D04FF0FF3010BD054A002134
:100CB00082F8141D0221016000F030FB002010BDFD
:100CC0006C0000240BE000E02DE9FF414FEA010336
:100CD0004FF00005EFF30581039561BB58B34FF06A
:100CE00080064FF018014FF000044AB3176807B1AF
:100CF0003C4697691FB139467F1E382F02D21779BB
:100D0000FF0703D0002004B0BDE8F081576907B1A8
:100D1000BE08D2F808C0BCF1000F0DD0D5685C2D1C
:100D200018D312693AB137B18DE806103246214620
:100D300000F705FC03900DE0D7685FB912694AB966
:100D400003AACDE90012B2B2214600F7CBFB01287D
:100D500000D003950398D6E72DE9F041134C0F46D8
:100D60000546E6682068001D00F012FA681C07D1ED
:100D700037B12168BDE8F0410D48091D00F043BAC4
:100D800020683544B5424560216805D2A06B091D35
:100D9000BDE8F04100F01FBA606B091D00F01BFABE
:100DA000A06A854200D2A562BDE8F0811C00002443
:100DB000D80500242DE9F041054600F7A1F92D4C96
:100DC0002D4FA068401CA060206810B1606930B34E
:100DD0002BE02560A068012827D1002606EB8600BD
:100DE00007EB800000F780F9761C382EF6D32348F5
:100DF00000F77AF92148143000F776F91F482830B7
:100E000000F772F91D483C3000F76EF91B4850306E
:100E100000F76AF9194860631430A06305E0E86AD6
:100E20002168C96A814200D82560606A401C6062FE
:100E30006864E86A2169884200D9206100EB80007B
:100E4000291D07EB800000F0DEF900F779F96069F1
:100E500000280CD02068E96AC06A884207D2084995
:100E60004FF080500860BFF34F8FBFF36F8FBDE826
:100E7000F08100001C0000242801002488050024C3
:100E800004ED00E038B500F73BF9104C2068C8B914
:100E90000F4800F729F90E48143000F725F90C49DE
:100EA0000020E16014312161A1F582730090A1F16D
:100EB000B40210210A2000F0F7FA206010B105A159
:100EC00000F0F2F9BDE8384000F73AB958000024C4
:100ED000DC060024546D7251000000002DE9F04141
:100EE000856B1746026C0446002682B1C7B1E068E4
:100EF000FFF6A6FAE168206C2268091AE1609142C7
:100F000002D2A168081AE060022F16D017E020680C
:100F1000A8B9A06800F7A2FB06460020A0600EE07A
:100F20006068FFF68DFAD4E90101226C104460601C
:100F3000884204D32068606001E005B16D1E6D1C1D
:100F4000A5633046BDE8F08111484FF4705110B5EB
:100F5000420706D00E49C01D20F00700411AC1F516
:100F600070510C4C002301440839A4F1180221F0FF
:100F70000701C4E900030C1A11604B600B60C0E963
:100F8000001494604FF000415460516110BD0000A6
:100F9000BC0D00248800002470B51D46049C51B18E
:100FA000C4F80020C4E90F010121204600F7B2F97E
:100FB00084F84C5070BD2460F4E72DE9F05F88465A
:100FC0009A4691001546DDE90B940A9EA5228346B8
:100FD000206BFFF67AFA206B6FF0030101EB8501BD
:100FE000084420F00707780707D0502080F31188C5
:100FF000BFF34F8FBFF36F8FFEE7B8F1000F4FF0D5
:1010000000050ED00020221818F8001082F83410C5
:1010100018F8001011B1401C1028F4D384F8435084
:1010200001E084F83450382E00D33726E662201DC4
:10103000C4E9136500F0CCF804F1180000F0C8F81A
:101040006565C6F13800A06184F8585052462461A5
:1010500059463846646200F083F8B9F1000F206009
:1010600001D0C9F80040BDE8F09F000070B50D4DFB
:10107000914241604FF00004006106D88169D21AA4
:101080008A4206D2011D286907E09A4203D299429A
:1010900001D3012403E0011DE86800F09CF820461C
:1010A00070BD00005800002408484068401C4FF004
:1010B000500080F3118804D0BFF34F8FBFF36F8FC0
:1010C000FEE7BFF34F8FBFF36F8FFEE79000002462
:1010D000074CE068016841B1C0680021D0F8000009
:1010E000FFF6CEFEFFF650FEF3E701210020F7E702
:1010F000580000242DE9F041044600F701F894F966
:10110000455004F1240609E0606A48B1304600F712
:10111000E3FA08B100F77CF86D1E6DB2002DF3DC28
:101120004FF0FF3684F8456000F70AF8FFF6E8FF55
:1011300094F9445004F1100709E0206948B1384699
:1011400000F7CAFA08B100F763F86D1E6DB2002D02
:10115000F3DC84F84460BDE8F041FFF6F1BF000025
:1011600070B5041F094E231F4FF0807521F0010157
:1011700025601C1F1960A0F120010B1F2660443858
:101180000A606FF002051D6070BD0000A910100814
:10119000D0E9013201699A60D0E901235A604A68B6
:1011A000824201D182684A60002202610868401EC2
:1011B000086008687047000010B5044C4FF4807355
:1011C000046004F15C000860136010BD6009002435
:1011D00000210161704730B50B685A1C02D000F144
:1011E000080202E0026904E02246546825689D4234
:1011F000FAD953684B6099608A6051600861016850
:10120000491C016030BD42684A6093688B609368F6
:101210005960916008610168491C016070470000D5
:1012200070B500282AD0164DA0F1080461686869DD
:10123000014207D1502080F31188BFF34F8FBFF3D5
:101240006F8FFEE722683AB1502080F31188BFF318
:101250004F8FBFF36F8FFEE78143616000F0A2F80C
:1012600060686968084468602046FFF659FD28698F
:10127000401C2861BDE8704000F766BA70BD0000F0
:10128000700000244FF0E020002101614FF47A72D9
:101290008161072303490968B1FBF2F1491E4161ED
:1012A0000361704714000024084B5FF0000210B582
:1012B00053F832401CB1521C082AF9D310BD03EB7D
:1012C000C20443F83210606010BD0000E800002442
:1012D000020010B514D00F48006B38B1502080F3D5
:1012E0001188BFF34F8FBFF36F8FFEE700F05AF8FE
:1012F00000211046FFF730FD00F726FA002807D13D
:1013000005494FF080500860BFF34F8FBFF36F8FD8
:1013100010BD00001C00002404ED00E030B587B0D3
:10132000002405AA04A9039403A80494FFF6D0FEA0
:10133000DDE9030100940023CDE90110174815A150
:10134000059A00F7FCF8164D0028E8621FD000F05F
:101350003FFA012809D0401C19D1502080F3118890
:10136000BFF34F8FBFF36F8FFEE7502080F31188DC
:10137000BFF34F8FBFF36F8F01214FF0FF30A86293
:101380006961EC6007B0BDE8304000F013B807B009
:1013900030BD000049444C4500000000C10C00086D
:1013A0001C0000240248016B491C016370470000C7
:1013B0001C00002437481CB5374902688A4207D10F
:1013C000502080F31188BFF34F8FBFF36F8FFEE77C
:1013D00031490068491E884207D1502080F31188A6
:1013E000BFF34F8FBFF36F8FFEE72C49FF200A78C2
:1013F0000192087008788DF800009DF800209DF893
:10140000000002F0F002824207D0502080F31188E1
:10141000BFF34F8FBFF36F8FFEE79DF800200720CB
:101420001F4C02F050022270A06005E09DF80020E1
:1014300052008DF80020401E9DF800201206F5D4C1
:101440000328A06007D0502080F31188BFF34F8F8E
:10145000BFF36F8FFEE74FF44070A06001980870F3
:101460000C482030016841F470010160016841F0CE
:1014700070410160FFF706FF00206060FEF684FF08
:101480000848016841F040410160FEF669FF002014
:101490001CBD000000ED00E071C20F4100E400E05F
:1014A0009000002434EF00E0F8B5069D18B153B168
:1014B000CAB181B120E0502080F31188BFF34F8F73
:1014C000BFF36F8FFEE7502080F31188BFF34F8F7B
:1014D000BFF36F8FFEE7502080F31188BFF34F8F6B
:1014E000BFF36F8FFEE739B1502080F31188BFF34F
:1014F0004F8FBFF36F8FFEE750241C46012683F801
:10150000466000932B46FFF747FD2046F8BD0000DC
:101510002DE9FF4704001D4682B08A464FF00008BF
:1015200003D0BAF1000F08D011E0502080F31188E9
:10153000BFF34F8FBFF36F8FFEE7206C38B15020A1
:1015400080F31188BFF34F8FBFF36F8FFEE7022D3B
:101550000AD1E06B012807D0502080F31188BFF337
:101560004F8FBFF36F8FFEE700F01EF93F4F4FF034
:1015700080564FF0000948B9049838B1502080F3E4
:101580001188BFF34F8FBFF36F8FFEE7FFF6B8FDF3
:10159000A06BE16B884207D3022D05D00498D0B12F
:1015A000B8F1000F1AD01EE02A4651462046FFF738
:1015B00095FC616A19B104F1240000F78DF820B19F
:1015C0003E60BFF34F8FBFF36F8FFFF6B9FD012071
:1015D00006B0BDE8F087FFF6B3FD22E06846FFF6EF
:1015E0000FFE4FF00108FFF6ABFDFFF7DBFEFFF645
:1015F00087FD94F94400401C01D184F8449094F98B
:101600004500401C01D184F84590FFF699FD04A9DE
:10161000684600F08DF830B12046FFF76BFD00F70B
:1016200093F80020D4E7FFF66BFDA06BE16B8842D6
:1016300013D1FFF685FD049904F11000FFF6EEFDCD
:101640002046FFF757FD00F77FF800289ED13E6047
:10165000BFF34F8FBFF36F8F98E7FFF671FD204602
:10166000FFF748FD00F770F890E7000004ED00E098
:101670002DE9F04704001F469046894603D0B9F192
:10168000000F08D011E0502080F31188BFF34F8F76
:10169000BFF36F8FFEE7206C38B1502080F31188C4
:1016A000BFF34F8FBFF36F8FFEE7022F0AD1E06BBE
:1016B000012807D0502080F31188BFF34F8FBFF36C
:1016C0006F8FFEE7FFF650FD5020EFF3118680F399
:1016D0001188BFF34F8FBFF36F8FA06BE16B884210
:1016E00006D3022F04D0002086F31188BDE8F087CE
:1016F00094F94550A06B3A4649462046FFF7EEFB69
:10170000681C04D06D1C84F845500120ECE7606A29
:101710000028FAD004F12400FFF6DEFF0028F4D000
:10172000B8F1000FF1D00121C8F80010EDE700007A
:101730002DE9F04105000C4612D0CCB1FFF6E0FCDB
:10174000184E2068F268471C6B68A2EB030117D0A3
:101750002F68366AB74215D0934213D801251CE092
:10176000502080F31188BFF34F8FBFF36F8FFEE7D8
:10177000502080F31188BFF34F8FBFF36F8FFEE7C8
:1017800000250AE0884205D9401A20602846FFF665
:1017900037FDF5E7002020600125FFF6D1FC284643
:1017A000BDE8F0811C0000240548416919B1006BB7
:1017B00018B10020704701207047022070470000D8
:1017C0001C0000240148C068704700001C00002471
:1017D00010B586B0FFF756FB114C2068B8B1002059
:1017E000039005AA049004A903A8FFF7E5FCDDE92E
:1017F0000321022000238DE807000C4809A1059A67
:10180000FFF69DFE606010B106B0012010BD5020B3
:1018100080F31188BFF34F8FBFF36F8FFEE7000097
:1018200058000024546D722053766300D1101008C4
:101830004FF04070E1EE100A704700000000010216
:101840000304010203040607080900006D795461CE
:10185000736B30320000000064656661756C74540F
:0418600061736B0045
:04000005080002AD40
:00000001FF
